:020000040800F2
:10000000B1AA010000000000000000000000000094
:10001000000000000000000000000000481A000876
:1000200000000000000000000000000000000000D0
:1000300000000000000000000000000000000000C0
:1000400000000000000000000000000000000000B0
:1000500000000000000000000000000000000000A0
:100060000000000000000000000000000000000090
:100070000000000000000000000000000000000080
:100080000000000000000000000000000000000070
:10009000081A000800000000000000000000000036
:1000A0000000000000000000000000000000000050
:1000B0000000000000000000000000006E6000086A
:1000C0000000000000000000000000000000000030
:1000D0000000000000000000000000000000000020
:1000E0009A1A000800000000000000000000000054
:1000F000000000002248000800000000000000008E
:1001000000000000000000000000000000000000EF
:1001100000000000000000000000000000000000DF
:1001200000000000000000000000000000000000CF
:1001300000000000000000000000000000000000BF
:1001400000000000000000000000000000000000AF
:100150000000000000000000124800087370043026
:10016000170500001305C5FF8545F605637BB5003F
:1001700089816378B500170500001305C5002E9529
:1001800002859302002073A0027D970200009382F3
:1001900062E773907230976200009382E23273904C
:1001A000C27E73E0C07E976200009382A2297390A2
:1001B0005230971100189381E1B417810018130190
:1001C00061E4179500001305E5BD970500189385B8
:1001D00065E3170600181306663563FAC500832227
:1001E000050023A0550011059105E3EAC5FE17059A
:1001F00000181305A5339745001893852569637783
:10020000B500232005001105E36DB5FE73F0023241
:10021000178500001305C59397700000E780204FF5
:1002200097800000E780009D97100000E7808078AD
:100230000145814597000000E78080431773000067
:100240006700E34D01A073E00232828073F0023256
:0402500082800000A8
:100280000000000000000000010203040607080946
:10029000307800000A50726F6772616D2068617378
:1002A00020657869746564207769746820636F6479
:1002B000653A00006E6D690A00000000747261709A
:1002C0000A00000000000000000000000040AF40F5
:1002D000464154004641543332000000222A2B2C60
:1002E0003A3B3C3D3E3F5B5D7C7F0000E4430008C1
:1002F000144600080E420008944500080E4200080B
:100300003045000842420008AC4600089E44000800
:100310003C430008DA44000806450008B0460008DF
:10032000160347006900670061004400650076001D
:100330006900630065000000380347004400330093
:1003400032002000550053004200200043004400CA
:1003500043002000410043004D00200069006E0072
:1003600020004600530020004D006F00640065002F
:10037000000000002E034700440033003200580004
:10038000580058002D0033002E0030002E003000A1
:100390002D0037007A0038007800390079006500B8
:1003A000720000001201000202000040E9288A01E8
:1003B0000001010203010000948D000820030008E1
:1003C000380300087403000800000000010000006A
:1003D000020000000300000072656164790D0000F6
:1003E00074657374000000006D70750D00000000EE
:1003F0006D7075320D00000054446174612E4353DA
:1004000056000000582D6163633B592D6163633BC7
:100410005A2D6163630A000072756E6E696E670D16
:1004200000000000627265616B696E670D0000007C
:1004300066696E697368656420696E20256420288A
:1004400073290D0A00000000646F6E650D00000046
:10045000000000000040AF406A690000BA68000078
:10046000C0680000BA6800005C690000BA6800005B
:10047000C06800006A6900006A6900005C690000E9
:10048000C0680000A0680000A0680000A06800002C
:10049000C4680000706D0000706D0000886D000081
:1004A0006A6D00006A6D0000166E0000886D000025
:1004B0006A6D0000166E00006A6D0000886D000015
:1004C000686D0000686D0000686D0000166E000029
:1004D00000010202030303030404040404040404EB
:1004E00005050505050505050505050505050505BC
:1004F000060606060606060606060606060606069C
:10050000060606060606060606060606060606068B
:10051000070707070707070707070707070707076B
:10052000070707070707070707070707070707075B
:10053000070707070707070707070707070707074B
:10054000070707070707070707070707070707073B
:10055000080808080808080808080808080808081B
:10056000080808080808080808080808080808080B
:1005700008080808080808080808080808080808FB
:1005800008080808080808080808080808080808EB
:1005900008080808080808080808080808080808DB
:1005A00008080808080808080808080808080808CB
:1005B00008080808080808080808080808080808BB
:1005C00008080808080808080808080808080808AB
:1005D000000000000000000000000000000000001B
:1005E000000000000000000000000000000000000B
:1005F00000000000000000000000000000000000FB
:1006000000000000000000000000000000000000EA
:1006100000000000000000000000000000000000DA
:1006200000000000000000000000000000000000CA
:10063000232D302B20000000686C4C006566674558
:10064000464700003031323334353637383941428D
:1006500043444546000000003031323334353637EC
:10066000383961626364656600000000130101812E
:100670002326117E2324817E2322917E2320217F25
:10068000232E317D232C417D232A517D2328617D1A
:100690002326717D2324817D2322917D13010194E2
:1006A00097500000E78020E6054597400000E7806E
:1006B000200897500000E78080EA6305052A370587
:1006C00000081305853D97800000E780A08B9740C8
:1006D0000000E780E08897600000E78040A80545BB
:1006E00097400000E780C0040147814681470546E6
:1006F00085451305C07B02C897200000E780A0E570
:100700001305400697400000E780C0A3856AFD748A
:1007100093870AE88A971389043D3E99370A0008AF
:1007200093050A3E05464A8597300000E780C09948
:1007300093870AE88A979389841ABE992AC64E85B8
:1007400097300000E780E010130500199740000083
:10075000E780409F370500081305853E978000001D
:10076000E780408297600000E780A0C63705000858
:100770001305053F97800000E780C08013050050F7
:1007800097000000E780403C514505649740000019
:10079000E780409B130404A022868145130501488D
:1007A00097700000E780004D93050A3E05464A8594
:1007B00097300000E78040912AC6370A00084E852E
:1007C00097300000E780E00813098A3D930509028D
:1007D00029464E8597300000E780C0942AC697408E
:1007E0000000E78040929305C9024D464808977083
:1007F0000000E780C04693870AE88A97138544196A
:100800003E9597300000E780A07797600000E78072
:10081000209A97100000E780C01C97100000E78026
:10082000C0CA1305090497700000E780A07597609F
:100830000000E780E0B3D68C13870CE80A97938416
:1008400004192A8B935AF541814B0149130A8A3DB9
:10085000370C002033048740BA9403274C5689672D
:100860009387F77063F7E71097600000E78040B068
:100870002A841305CA0497700000E780A07093557E
:10088000F441330564413334A400B385554129460E
:100890008146818D97600000E78020CAAE862A8657
:1008A00013058A0597700000E78060598945370570
:1008B000004097100000E78040990567930607E81D
:1008C0008A96FD77B6977D74930607E88A96130992
:1008D00004603699930607E88A96130A0419930967
:1008E000841A23800760369AB699BE8495454A8556
:1008F00097300000E780607A63130510856793875F
:1009000007E88A971305841A3E9597300000E78020
:10091000400F370500081305854497700000E780F5
:100920006066014597700000E780C0FE1301016C0E
:100930008320C17E01450324817E8324417E0329D7
:10094000017E8329C17D032A817D832A417D032B7A
:10095000017D832BC17C032C817C832C417C130182
:10096000017F82801305400697400000E78040DC4D
:1009700089B3B7470F00050993870724631AF90065
:1009800063880B0697600000E7800080814B014977
:1009900097300000E78080659547E3D0A7EC0566B7
:1009A0008145130606A0228597700000E780802C01
:1009B000014597700000E780E0F595452285973066
:1009C0000000E780C065E30A05E822859770000013
:1009D000E780606D2A86A686A2854E859730000046
:1009E000E780A0C64E8597300000E78080E6B5B569
:1009F00097500000E780807A0149854B51BF4A85B6
:100A000097700000E780206A2A86D286CA854E85C4
:100A100097300000E78060C34E8597300000E78084
:100A200040E323800460D9B5B707014083A607409F
:100A30001347F5FFF98E23A0D74083A64740F98ED0
:100A400023A2D74083A68740F98E23A4D74083A64C
:100A5000C740F98E23A6D74081CD85466380D50255
:100A600085476300F6040DC289476309F604828056
:100A700083A60740C98E23A0D740DDB783A6474091
:100A8000C98E23A2D740E9BFB707014083A687409C
:100A9000558D23A4A74083A6C740758F23A6E740A2
:100AA0008280B707014083A68740758F23A4E74063
:100AB00003A7C740598D23A6A7408280B7070140EE
:100AC00003A78740498FDDB73707014083270740D9
:100AD0005D8D2320A7408280B707014023AAA7404D
:100AE00082801C410D6713070704D4417D8F9C4110
:100AF000D58F9445D58FD445D58F9449D58FD4497A
:100B0000D58F944DD58FD98F1CC15C4D7D77130740
:100B1000F77FF98F5CCD82801C4193E707041CC1ED
:100B200082804CC5828048454205418182801C41BB
:100B30000967D98F1CC10CC9828008456D8D33357A
:100B4000A0008280B7170240135765003E971443F8
:100B50008547B397A700D58F1CC38280B717024083
:100B6000135765003E9714438547B397A700D58F69
:100B70001CC38280B7170240135765003E97144389
:100B80008547B397A70093C7F7FFF58F1CC38280F3
:100B9000B7160240DC42370740FF7D17F98F5D8DA5
:100BA000C8C282807971B705000822D441462A84E0
:100BB00093850528080806D697700000E780200A6C
:100BC000B70703049387172002C03EC202C43EC683
:100BD000371702405C43894689838D8B6397D70E14
:100BE0005C439396F70063D606065C579396F7002E
:100BF00063DC06045C57585791832183BD8B3D8B82
:100C0000938617000907C5476313F7005147B717C5
:100C10007A0093870720B3D7D702B387E702371745
:100C2000024058573D8B050733D7E702B7160240FD
:100C3000DC42D442C98313962600BD8B6350060262
:100C400093E7070185070DA0B7177A009387072060
:100C5000F9B7B7173D0013870790C9BFBD46E383B7
:100C6000D7FE8907638DD704B387E702B716024022
:100C7000D842101011833D8B3297034507FFD842AD
:100C800033D5A70021831D8B3297034607FED84238
:100C900014102D831D8B36978546034787FE630C02
:100CA000D40005CC89476307F4028D473355E5002E
:100CB0006303F4000145B250225445618280994794
:100CC000B307F7020583BA9755B7B7177A0093872A
:100CD000072069BF3355C500F9BF3E85E9BF93F7CB
:100CE000050193F8F50099C3B3E8C8008147054EA4
:100CF000BD4E130F8002930F800421433316FE0074
:100D0000758E1DC213972700832205003398EE00CD
:100D10001348F8FF337858003397E800336707012A
:100D20006399E50550C918C18507E39967FC054E2D
:100D3000BD4E130F8002930F800441433316FE0013
:100D4000758E05C613972700011783224500339837
:100D5000EE001348F8FF337858003397E800336704
:100D60000701639CE50150C958C18507E39867FCFA
:100D70008280E39AF5FB10C97DB7E397F5FF10C9B0
:100D8000E5B70CC982804CC9828019C20CC9828027
:100D90004CC982804111B717004006C6138707C0AF
:100DA000630EE5086367A702370700409306074014
:100DB0006304D506938707806309F5066312E50A85
:100DC0001305004097000000E78080D9130500401C
:100DD00035A813870740630CE50637370140130732
:100DE00007C0630DE500631DF5061305404097003D
:100DF0000000E780E0D61305404009A81305B03095
:100E000097000000E780C0D51305B030B240410123
:100E100017030000670043D6130510409700000039
:100E2000E78000D413051040D5B713052040970084
:100E30000000E780E0D213052040C9BF1305304011
:100E400097000000E780C0D113053040C1B71305FB
:100E5000504097000000E780A0D0130550407DB7B8
:100E6000B24041018280C167FD1723200500231293
:100E700005001CC52316050023070500828083D7C3
:100E8000050003D745009376F5BF1CD5B737014061
:100E9000938707C0418B630AF500FD779387F73F7F
:100EA000E98F370600406390C7061C4193F7F7F8B7
:100EB0001CC183D72500104193F70706D18F1CC1B1
:100EC0001C415D8F18C19C455CD5B71700406387F6
:100ED000F6021C4193F7F7CF1CC183D7C500184118
:100EE00093F70730D98F1CC1B7370140138707C06C
:100EF0006316E50003C7E50023A8E7C25C4993E752
:100F000017005CC982801C41BD9B55BF1C4193E703
:100F100017001CC182802310050023110500231235
:100F20000500231305002314050023150500828006
:100F30008547638EF50881C989476389F5128D4716
:100F40006387F51C82801C51F99B1CD11851835773
:100F50000600D98F1CD11C51F59B1CD11851835709
:100F60004600D98F1CD1B7370140138707C0631CD7
:100F7000E50418516D9B18D1145103572600558F65
:100F800018D118515D9B18D1145103576600558F25
:100F900018D103A747C01377F7EF23A2E7C083A6B2
:100FA00047C003578600558F23A2E7C003A747C059
:100FB0001377F7DF23A2E7C083A647C00357A60035
:100FC000558F23A2E7C01C4DF19B1CCD82801C5184
:100FD000BD9B1CD18357060018519207D98F1CD195
:100FE0001C5193F7F7FD1CD1835746001851920707
:100FF000D98F1CD1B7370140138707C06314E506AA
:1010000018511377F7FB18D1035726001451120714
:10101000558F18D118511377F7F718D10357660079
:1010200014511207558F18D103A747C01377F7BF84
:1010300023A2E7C00357860083A647C00A07558F3F
:1010400023A2E7C003A747C0FD769386F67F758F7E
:1010500023A2E7C00357A60083A647C00A07558FFF
:1010600023A2E7C01C4D93F7F7CF85B71C5193F728
:10107000F7EF1CD1835706001851A207D98F1CD156
:101080001C5193F7F7DF1CD1835746001851A20774
:10109000D98F1CD1B7370140138707C06315E50608
:1010A00018511377F7BF18D10357260014512207A0
:1010B000558F18D11851FD769385F67F6D8F18D115
:1010C000035766000C51FD1622074D8F18D103A758
:1010D00047C0F98E23A2D7C00357860083A647C016
:1010E0001207558F23A2E7C003A747C0F976FD1664
:1010F000758F23A2E7C00357A60083A647C0120737
:10110000558F23A2E7C05C4DF19B5CCD82801C51C2
:101110007D777D17F98F1CD1835706001851B207D0
:10112000D98F1CD11C5179777D17F98F1CD183572A
:1011300046001851B207D98F1CD1B7370140138729
:1011400007C06311E50203A747C0F176FD16758F4E
:1011500023A2E7C00357860083A647C01A07558F0E
:1011600023A2E7C05C4D93F7F7CF45B7854763826D
:10117000F50281C989476386F5028D47638BF502C5
:1011800082801C4D93F7F7F81CCD1C4D5D8E10CD61
:1011900082801C4D65777D17F98F1CCD1C4D220672
:1011A000F5B75C4D93F7F7F85CCD5C4D5D8E50CD97
:1011B00082805C4D65777D17F98F5CCD5C4D220692
:1011C000F5B78547638CF50081C98947638AF500C7
:1011D0008D476389F500828050D9828010DD82803E
:1011E00050DD828030C1828085476381F50281C9EC
:1011F00089476386F5028D47638AF50282801C4D1C
:10120000DD9B1CCD1C4D5D8E10CD82801C4D7D77ED
:101210001307F77FF98F1CCD1C4D2206EDB75C4DEF
:10122000DD9B5CCD5C4D5D8E50CD82805C4D7D77CD
:101230001307F77FF98F5CCD5C4D2206EDB75C4557
:10124000DD8D4CC582805C4593C5F5FFFD8D4CC599
:1012500082805C4508496D8D09C533F5B70033358B
:10126000A000828093C5F5FF0CC98280011122CCB9
:101270002A84094526CA32C606CEAE8497000000ED
:10128000E7808092B7470F00B7063803938707249B
:101290009386F6973357F50232469307600363E36C
:1012A000A600BA87544093F606FCDD8E54C0E16672
:1012B0009386066A63E196049307170013075003A9
:1012C0006376F700930760031CD029A00947E36DFC
:1012D000F7FE18D08604335595025C4C11476373B2
:1012E000E5001145520551815D8D48CCF2406244C4
:1012F000D2440561828037270600130707A8636C74
:1013000097041307C012B387E7021307803EB3D7D1
:10131000E70285071CD01DE68D47B384F4025C4CC0
:1013200071777D17F98F335595025CCC9317450182
:1013300099E3136515005C4C2167D98F5CCC444C54
:10134000458D65B7E547B384F4025C4C1167D98FCE
:1013500033559502D9BF13078007B387E7021307F8
:10136000803EB3D7E70285071CD00DEA8D45B384D4
:10137000B4025C4C71777D17F98F335595025CCCC4
:101380005C4C2167D98F5CCC444C458D48CC83277D
:10139000040993E717002328F40889BFE545B384BF
:1013A000B4025C4C1167D98F33559502C9BF85478C
:1013B0006397F5001C4193E707401CC182801C41E4
:1013C00093F7F7BFDDBF795793E715006314E60085
:1013D00093F7E5FF1CC982801C4193E717001CC1ED
:1013E00082801C4193E707101CC182801C4193E757
:1013F00007201CC182800CC9828008491375F50F33
:10140000828093D7650093F7F73F3E9508413355A7
:10141000B50005898280930710506395F5005C49FB
:101420001C4D828013D765001377F73F3A9518411A
:101430008547B397B70093C7F7FFF98F1CC1828028
:101440005C418A053316B6005D8E50C1828091479B
:10145000630AF602A1476305F60489476310F6069E
:101460001C41139725003316E6007D8ED147B385C6
:10147000F502A105AA959C41898B19C23336F0006B
:10148000328582801C41139725003316E6007D8E3D
:10149000D147B385F502A105AA959C41918BF1BF77
:1014A0001C41139725003316E6007D8ED147B38586
:1014B000F502A105AA959C41A18BC1B701A0170314
:1014C0000000670023F8F3670430828017030000F0
:1014D0006700833A011106CE22CC32C42A842EC67C
:1014E00097000000E7802038B24522859700000071
:1014F000E780E03A224622856244F240B2850561E7
:10150000170300006700233FB71702409843B70650
:10151000FFE0B1061367170098C3D843758FD8C38F
:101520009843B706F7FEFD16758F98C39843B70624
:10153000FCFFFD16758F98C3D843B70601DFFD1673
:10154000758FD8C323A607029843B706F7EAFD169E
:10155000758F98C33707FF0098C794434167D98EAA
:1015600094C39307F7FF3717024014431396E6001E
:1015700063440600FD17F5FBB71702409843931626
:10158000E70063C3060001A0D843B706C4DFFD1619
:10159000D8C3D843D8C3D84313670740D8C3D84368
:1015A000758FD8C3D843B7062920558FD8C3D857CD
:1015B000BD76758FD8D7D857C166938616F1558FEB
:1015C000D8D79843B7060004558F98C3B717024081
:1015D000984393164700E3DD06FE9843B7060010D4
:1015E000558F98C3B7170240984393162700E3DD41
:1015F00006FE9843B7060001558F98C3B7170240FF
:10160000984393166700E3DD06FED843719BD8C369
:10161000D84313672700D8C3371702405C43A18B18
:10162000F5DF8280371702405C433706002085468D
:1016300089838D8B130606506386D70081C7894640
:101640006388D700B7177A00938707201CC282806F
:101650005C439396F70063DB06065C579396F700AE
:1016600063D106065C5758579183BD8B21839386BF
:1016700017009377F70013872700C5476313F70018
:101680005147B7177A0093870720B3D7D702B3879C
:10169000E7023717024058573D8B0507B3D7E702DB
:1016A000B7160240D842D4424983939526003D8B19
:1016B00063D305021367070105073307F70218C252
:1016C0008280B7177A0093870720E1B7B7173D00EC
:1016D00093870790F1B7BD46E300D7FE0907E31EE5
:1016E000D7FC19473387E7028583BA9785B77971A5
:1016F0004ECEAE89B705000809469385052922D448
:1017000026D24AD052CC56CA06D62A89714497703E
:101710000000E780E09A3D4AA54AF154B3178A00D9
:10172000B3F73701B3D7870093F7F70F63ECFA02EB
:101730009387070393F7F70F05469305F1004A8552
:101740007114A307F10097700000E7806097E3171A
:1017500094FCB250225492540259F249624AD24A3D
:101760004561828093877703F1B73707002013071D
:1017700047501C43B7560020938686883E95636B7E
:10178000D500B77600209386060063E5A60008C35F
:101790003E858280FD57EDBF7D558280411106C692
:1017A00097700000E7804091B24013351500330573
:1017B000A040410182807971B705000822D47D469E
:1017C0002A84938545290A8506D697600000E7801C
:1017D000004979468A85094597700000E780408E68
:1017E000A285094597000000E780A0F0B705000832
:1017F00005469385052C094597700000E780408CCD
:1018000001A07D15133525008280011106CE2EC65C
:1018100097700000E780408A01C9B2458967014599
:10182000DCC1F240056182807D55E5BF7D55828037
:10183000B70700D1D8438843CC43E39DE5FE8280BF
:10184000B70700D223800700A38507001205B7174A
:1018500000D23E9563E3A700828023A00700C10762
:10186000D5BFB71700D285070A053E9585472300E7
:10187000F5008280370700D2834707000605798983
:1018800093F7170E5D8D2300A7008280B70700D263
:1018900003C5070005813D898280411122C426C20B
:1018A00006C62A84AE8497000000E78060FE914758
:1018B000114763E3A7002A87371500D20A040D05F4
:1018C0002295834705009376F70FA145B397E7006C
:1018D00093F7F70F958DB394B400B3D7E740C58F56
:1018E00093F7F70F2300F500B240224492444101E0
:1018F0008280011122CC2EC606CE2A8497000000D9
:10190000E78000F98D47814563E9A702371700D2C8
:101910000A040D07229783470700B245A146338585
:10192000A6409205B3D7A74093F5F50FB397A7004C
:10193000CD8F93F7F70F2300F700F24062442E8516
:1019400005618280F327503093F707FC93E7370057
:10195000739057308280B705000841111546938572
:10196000452B054506C697600000E7806075054574
:1019700097000000E78060E441119347F5FF22C41F
:1019800006C6139747012A8409E797000000E780FD
:10199000C0FCB705000815469385C52B0545976023
:1019A0000000E780E071228597000000E780E0E01A
:1019B000411106C697000000E78040B51305700589
:1019C00097000000E78000E897000000E780C0F77C
:1019D000B240410117F3FFFF670023878280411166
:1019E00006C697000000E78040AE0D459700000056
:1019F000E78000AEB240054685451305400241012F
:101A000017030000670043AD37550040411113052F
:101A1000054006C697000000E780809D094699456D
:101A20003705024097000000E780A0A219C9B24024
:101A3000054699453705024041011703000067003C
:101A400043A8B2404101828039713ECCB7070020E3
:101A500083A7875206DE16DC1ADA1ED82AD62ED4C1
:101A600032D236D03ACE42CA46C872C676C47AC29C
:101A70007EC08297F250E2525253C2533255A25561
:101A8000125682567247E2475248C248324EA24E20
:101A9000124F824F21617300203039713ECCB7075D
:101AA000002083A7C75206DE16DC1ADA1ED82AD613
:101AB0002ED432D236D03ACE42CA46C872C676C486
:101AC0007AC27EC08297F250E2525253C2533255CC
:101AD000A255125682567247E2475248C248324EC9
:101AE000A24E124F824F216173002030411122C457
:101AF00006C62A8497000000E780C0D3B7070020FD
:101B00009387075388C3CCC303A8070083A8470063
:101B1000B707002003A507508567938707FA335559
:101B2000F502B7060020B240330585022244330691
:101B300005013335A60023ACC652B307150123AE09
:101B4000F65241018280411106C697000000E780ED
:101B500060CEB70700209387075388C3CCC3B7066E
:101B600000209843DC4303A6865383A6C65363E74D
:101B7000F60005456395D7006373E6000145B24062
:101B800041018280411122C43744004026C24AC02C
:101B900006C6AA841309048089454A8597F0FFFF89
:101BA000E780E0F975D9A685130504803744004025
:101BB00097F0FFFFE78020F7930404808545268592
:101BC00097F0FFFFE780A0F775D91305048097F021
:101BD000FFFFE78080F5B24022449244024913752A
:101BE000F50F41018280411137150140916506C60C
:101BF00097F0FFFFE7802019B2401305F00F410175
:101C000017030000670043F8397126DA5AD05ECE18
:101C100062CC66CA6AC806DE22DC4AD84ED652D4E6
:101C200056D2AA8497000000E780C0C0B70700081A
:101C300003AB872C83ABC72CAA8C2E8D370C0020CE
:101C400097000000E78000BF330995413335250137
:101C5000B385A541898D1305F00F2EC697000000AE
:101C6000E78080F29307F00F2A84630FF504B245F2
:101C70004A8597500000E78020782A8903250C5078
:101C8000AE8997500000E780C0715A86DE86975073
:101C90000000E78060C02A8A2685AE8A975000003F
:101CA000E78020702A86AE865285D6859750000040
:101CB000E780201D2A86AE864A85CE859750000093
:101CC000E780E011E34E05F6130514F0F25062547C
:101CD000D2544259B259225A925A025BF24B624C88
:101CE000D24C424D1335150021618280011191655E
:101CF0003715014006CE97F0FFFFE7800009130576
:101D0000F00F97000000E78020E81305401F9700C0
:101D10000000E780A0EF2AC609E997000000E780ED
:101D2000C0EC3245F240056182800545E5BF4111B6
:101D30009317850122C426C206C6E1872A84AE8491
:101D400063DF070081451305700397000000E780FB
:101D500040FE0547AA87636CA70A1374F407B147CE
:101D6000631CF4081365040497000000E780C0E1D9
:101D700013D5840197000000E78000E113D504012A
:101D80001375F50F97000000E78000E013D584007D
:101D90001375F50F97000000E78000DF13F5F40FCF
:101DA00097000000E78040DE1305500919C4A147E1
:101DB00005456314F4001305700897000000E780E0
:101DC000A0DCB1476318F4001305F00F9700000082
:101DD000E78080DB29441305F00F97000000E780BF
:101DE000A0DA131785016187AA87635207027D1461
:101DF0001374F40F6DF021A897000000E780E0DE77
:101E000097000000E780C0EE9307F00F21FDB2407D
:101E1000224492443E8541018280411122C42A8499
:101E20001305800C26C206C6AE8497000000E7802A
:101E300020CC1305F00F97000000E780E0D4930753
:101E4000F00F631DF50097000000E78000D075F1EA
:101E50000145B24022449244410182809307E00F41
:101E6000E318F5FE8504A2941305F00F9700000017
:101E7000E78080D12300A4000504E39784FE1305C6
:101E8000F00F97000000E78020D01305F00F9700B7
:101E90000000E78060CF05456DBF411122C426C216
:101EA0004AC006C62A89014493040020B30789006A
:101EB00003C50700050497000000E780E0CCE317A6
:101EC00094FE1305F00F97000000E780E0CB1305A8
:101ED000F00F97000000E78020CB1305F00F97006C
:101EE0000000E78060CAB24022447D896D159244AB
:101EF00002491335150041018280631C0526797162
:101F00001305306006D622D426D24AD097F0FFFFC0
:101F1000E78080C31305406097F0FFFFE780C0C2F1
:101F20001305E07097F0FFFFE78000C2371401400F
:101F3000130504C0A9660D46E14597F0FFFFE78051
:101F400040DA130504C091660D46914597F0FFFFF6
:101F5000E78020D991660D46C1453715014097F0BD
:101F6000FFFFE78000D891653715014097F0FFFF2C
:101F7000E78060E1930740103EC28D47B7440040C0
:101F80003ECC930700203EC84C0093078002138587
:101F900004803ECE02C402C602CA97F0FFFFE7806B
:101FA00080B49D451385048097F0FFFFE78060B8FB
:101FB0001385048097F0FFFFE78040B629459720FE
:101FC0000000E7802018370400201307845083475F
:101FD000070013048450898B99CB03450700B25046
:101FE0002254925402591375F50F4561828083A7DC
:101FF000048091653715014093F777FC93E78702DA
:1020000023A0F48097F0FFFFE78020D8A944FD14B7
:102010001305F00F93F4F40F97000000E780C0B6AB
:10202000FDF48145014597000000E78080D0854799
:102030002A89631EF5121305803E97000000E78091
:1020400020AB9305A01A214597000000E78060CEE1
:102050006319250D11491305F00F97000000E78063
:10206000A0B25C00A6972380A7008504E39524FF17
:10207000034761008547631CF70E03477100930710
:10208000A00A6316F70E97000000E78000AC11C9A4
:10209000B70500401305900A97000000E78060C96B
:1020A0007DF197000000E78040AA71C181451305CA
:1020B000A00397000000E780C0C755E9814411499B
:1020C0001305F00F97000000E78000AC5C00A697B6
:1020D0002380A7008504E39524FF83474100B14492
:1020E00093F7070491E39144B707002023809754A6
:1020F00097000000E78060AF854799CC37470040E4
:102100008327078093F777FC93E787022320F780E4
:102110008347040093F7E70F2300F400034504000E
:102120007DBD81451305900A97000000E78060C0DF
:1021300085446365A90089441309900A970000004B
:10214000E780A0A001C981454A8597000000E7808B
:1021500040BE6DF597000000E780209F09C99305F8
:102160000020414597000000E780A0BC35DD814498
:10217000A5BF0545828001E9B707002003C5875048
:102180001375F50F82800545828059ED411122C4F7
:1021900006C626C236841145B1CAB707002083C7D8
:1021A00087500D45858BB9E3B707002083C70754D7
:1021B000AE84B285A18B99E3931596008547631C85
:1021C000F402454597000000E780A0B611E99305A9
:1021D0000020268597000000E78060C413341500B6
:1021E00097000000E78060A033358000B2402244B1
:1021F000924441018280494597000000E78060B326
:1022000065F193050020268597000000E78020C136
:1022100009C57D14938404206DF4814531459700F0
:102220000000E78000B16DBF114582806312051088
:10223000011122CC06CE26CA36841145A9CAB70799
:1022400000209387875003C707000D45058B21E3C6
:1022500083C707000945918B9DEBB707002083C713
:102260000754AE8413F7870011E326060547631A67
:10227000E404B285614597000000E78080AB09CD9A
:10228000054497000000E780409633358000F24017
:102290006244D244056182801305401F970000000C
:1022A000E780C09671DD1305E00F97000000E7801E
:1022B000A08D268597000000E78060BE13341500CE
:1022C000C9B7998B91CBA2851305700932C69700C7
:1022D0000000E78000A63246B28565459700000001
:1022E000E78020A559FD1305401F97000000E780F7
:1022F000E0910DC11305C00F97000000E780C08872
:10230000268597000000E78080B909C57D14938475
:10231000042071F81305401F97000000E780008F2C
:1023200025D11305D00F97000000E780E08591BF0D
:1023300011458280011126CA06CE22CC91440DE9B6
:10234000B707002083C787508D44858B95E3854769
:102350003284AE84638BF50295C18D476388F50A9C
:1023600091476383F516914497000000E780E0876A
:10237000F24062442685D2440561828097000000C5
:10238000E780009793341500C5B781452545970030
:102390000000E780009A19C18544F9B7C1450A8554
:1023A00097000000E780A0A765D903460100834796
:1023B000810083469100198203477100631E9600D5
:1023C000A207B6974207B7063F00758F0507BA9771
:1023D000AA071CC0814449BF0A079983BA970347DB
:1023E00061000566130606C02A07718FBA97034677
:1023F000A1000347510086061D823D8B3297998AC2
:10240000369785076517B397E700E1B7B704002053
:102410009384045483C704008145918BB1CB130589
:10242000D00897000000E780C0903DF51305F00F3D
:1024300097F0FFFFE7804075C1450A8597000000CF
:10244000E780E09D31D993040003FD141305F00FDC
:1024500093F4F40F97F0FFFFE7800073FDF48347D8
:10246000A10013D74700C147B397E7001CC0EDBDDB
:10247000254597000000E780C08B19FDC1450A85FE
:1024800097000000E780A09901D903C704008347A3
:10249000A1008346B100098B01CF0347D100860715
:1024A00093F7E7079D82B697198385077D17A1BF2C
:1024B00013973600618B958289873697FD8B0507C8
:1024C0008507B307F70231B7B7040020938404549B
:1024D00083C70400998BE38107EC0A86AD4597001A
:1024E0000000E78060E5E31905EA83470100034740
:1024F000A100998313770704D98FE38F07E883C777
:1025000004000C404040A18B99E3A6052604130566
:10251000000297000000E780C081E31F05E6A28566
:102520001305100297000000E780A080E31605E67F
:1025300081451305600297F0FFFFE780807FE31D70
:1025400005E41D651305055397F0FFFFE780006C58
:1025500015BD370800201308C8502310A800230118
:10256000B800A301C8002302D800A302E800230397
:10257000F8008280370700201307C75083472700E1
:1025800003453700D6074205C98F03456700C98F49
:10259000034547002E05C98F034557001605C98F0F
:1025A000034507001305450466055D8D828083475A
:1025B000350003472500A207D98F03471500A2075E
:1025C00003450500D98FA2075D8D828093D78500D2
:1025D0002300B500A300F50093D70501E181230195
:1025E000F500A301B5008280AA872A968507850594
:1025F00003C5F7FF03C7F5FF198D6383C7007DD5BA
:1026000082805849F915791763F9E5008357A500C9
:102610000855B387B7023E958280014582801C41F0
:102620008DC33E87930500021306A003050783466A
:10263000F7FF63F2D502E39BC6FE9386270063048F
:10264000D700FD5711A803C6070093060003FD57E6
:102650006314D60018C181473E85828001ED814711
:1026600025459CC1828025458147F24062449CC13A
:10267000056182801C41011122CC06CE2A84E5D757
:1026800003C707006DD38356450003D76700E39C5B
:10269000E6FC03C517002EC697000000E780E0ADFA
:1026A0000589B24569F11C40C9B781473387F500F8
:1026B000834607003307F50085072300D700E3179B
:1026C000F6FE828083C7B50103C7A501A207D98F93
:1026D0000D47631AE50003C7550183C6450122076C
:1026E000558F4207D98F3E858280411122C426C270
:1026F0004AC006C61309050350552A840345150030
:102700008546CA8597000000E78080B285440DE9C0
:1027100050541C50184CA3010400B307F640AA847F
:1027200063F0E702834624008947639BF600034574
:10273000140085463A96CA8597000000E78040AFAE
:10274000B2402244268502499244410182805C5570
:102750006384B704411122C426C206C683473500EC
:102760002A84AE8485E303451400854626869305B6
:10277000040397000000E78080A119C10545FD54BE
:1027800044D431A097000000E78060F669DDB240D4
:10279000224492444101828001458280411122C439
:1027A00006C6FD575CD5A30105002A8497000000EA
:1027B000E78020FA91473DE50347F4228347E4226E
:1027C000ED7622075D8F42074187938656A58D4798
:1027D000631AD704834704031307B00E6389E70025
:1027E000E10713F7F70F8546894763EDE602B70562
:1027F00000080D469385052D13056406970000001B
:10280000E780C0DE814719CDB705000815469385DE
:10281000452D1305240897000000E78020DDB3371D
:10282000A0008607B24022443E8541018280397172
:102830004AD806DE22DC26DA4ED652D456D25AD0F8
:1028400023A0050032892EC697000000E78060DDD6
:10285000AD4763420504370700209317250013078F
:102860004754BA978043AA84B14715C4B245137937
:10287000E90F80C18347040095CB034514009700FE
:102880000000E780808F937715008DE363050900D2
:10289000118911C1A947F2506254D2544259B25918
:1028A000225A925A025B3E852161828013F5F40F11
:1028B00023000400A300A40097F0FFFFE78020643A
:1028C000137715008D4761FB63040900118979F1C5
:1028D0008145228597000000E78080EC8947631FCF
:1028E000F50404081309641F130A6423A6898347A7
:1028F000C9FF014591C74A8597000000E78060CB7A
:1029000023A0A90041099109E3132AFF13890401B7
:10291000854903AA04000D45630A0A00D285228571
:1029200097000000E780C0E763F3A9029104E31277
:1029300099FE11478547631AE500B1BF11478547E6
:10294000E30BE5F4014A63F4A700B547A9B7834751
:10295000C4030347B403A207D98FC207C187130773
:102960000020E394E7FE8349740483476404A209CA
:10297000B3E9F900639909001305440597000000C5
:10298000E78020C3AA8983440404232C340105472B
:102990009387F4FF2301940093F7F70FE367F7FAA7
:1029A0000349D40393170901C1832315F400D1DF30
:1029B0009307F9FFB3F72701C9FB83472404834A30
:1029C0001404A207B3E75701939A070193DA0A4167
:1029D000139B0A01135B0B01231464019377FB0023
:1029E000ADF7034544048347340422055D8D19E5A2
:1029F0001305040597000000E780A0BB8347F4039C
:102A00000347E403A207D98FA9D3B386340313572E
:102A10004B003E973697E36AE5F2198DB3542503D0
:102A2000E36525F3370600105516E36096F241661C
:102A30005516637996120D4952978904D29718D486
:102A400044C8232E44011CD00D47631EE90E834762
:102A5000B4050347A405A207D98FB3E7FA00C2075C
:102A6000C187E39407EE1305C40597000000E780D3
:102A700040B448D08A049384F41FA580E3E799EC1E
:102A8000FD571CC85CC4930700F82302F4008D476F
:102A9000631AF9088347140603470406A207D98F6F
:102AA000C207C1870547639FE70693051A00228581
:102AB00097000000E780E0C935E58347F42203472B
:102AC000E42223020400A207D98FC2076D77C187D1
:102AD000130757A56398E704130504039700000044
:102AE000E78020ADB757614193872725631CF50226
:102AF0001305442197000000E780A0ABB777416140
:102B0000938727276310F50213058421970000009F
:102B1000E78020AA08C81305C42197000000E780B9
:102B200040A948C43707002013078754835707007C
:102B3000230024018507C207C1832310F700231354
:102B4000F400814789BBE3020BE0B6975CD089476C
:102B50006314F900860405B73387E402858805838A
:102B6000BA9411BF05695519333999000509E9B5BA
:102B700001114EC652C406CE22CC26CA4AC856C23D
:102B80005AC0054A89496374BA0A5C492A89894945
:102B900063FFF508834705000947B2842E84638AE2
:102BA000E70A0D476380E70E6393470913DA1500C0
:102BB0001C512E9A93559A00BE9597000000E7800D
:102BC00040B9AA892DE5930A0903130B1A00058859
:102BD000137AFA1F569A93F7F40F09CC83470A0029
:102BE0008566C11613F7F70093974400F58FD98FC8
:102BF00093F7F70F2300FA008547A301F900832715
:102C0000090293559B004A85BE9597000000E78016
:102C100040B4AA8909ED137BFB1FDA9A05C49180A1
:102C200093F4F40F23809A008547A301F900F24042
:102C300062444E85D2444249B249224A924A024BEA
:102C40000561828083C70A00A180BD88C19BDD8C9D
:102C5000D1BF1C51A181BE9597000000E78060AFF5
:102C6000AA8971F50604930709031374E41F3E94BF
:102C700023009400C204C180A180A3009400A3019A
:102C8000490175B71C519D81BE9597000000E780F2
:102C900040ACAA8949FD0A04930709031374C41FB1
:102CA0003E94228597000000E780A0909204B7052B
:102CB00000F09180E98DC58D228597000000E780A6
:102CC000209175BF854763F7B70E5849011122CC93
:102CD00006CE26CA4AC84EC62A8463FAE5020347CE
:102CE00005008946AE84630CD7068D46630ED7086F
:102CF000631FF70013D915001C512E9993559900A5
:102D0000BE9597000000E780C0A411C9FD57F240AE
:102D10006244D2444249B2493E85056182801C50DA
:102D20009309190093D599001379F91F2299BE953B
:102D300022850349090397000000E78080A179F507
:102D400093F9F91F4E94834704038588A207B3E7DC
:102D5000270199C0918365BFD207D1834DBF1C5114
:102D6000A181BE9597000000E780A09E45F18604F2
:102D70001304040393F4E41F2694834714000347C9
:102D80000400A207D98F61B71C519D81BE959700A1
:102D90000000E780009C3DF9139524001304040310
:102DA0001375C51F229597000000E7808080931758
:102DB00045004DB785473E858280011126CA4EC623
:102DC00052C406CE22CC4AC856C25AC02A8AAE89FC
:102DD000044191E903A9C40063050900DC4863606C
:102DE000F90405492DA8268597000000E780C0ED6D
:102DF00085472A8463EEA70005442285F240624499
:102E0000D2444249B249224A924A024B0561828029
:102E1000FD576303F50CDC484E89E360F5FE9C48E2
:102E200099E30144D9BF631D3903DC481304190039
:102E30006363F400094403250A00A285970000009B
:102E4000E78080E80547E309E5FAFD576306F508E2
:102E500029C1DC446376F700D84863F3E7003E8974
:102E60004A84854A7D5BDC4805046365F400E3FA27
:102E70002AFB094403250A00A28597000000E78089
:102E8000A0E409C9E30A55F763086505E31D24FDBD
:102E900049BF79D47D56A285268597000000E7803A
:102EA00060CD05E9639F0900D8489C48C0C47917E4
:102EB0006376F70283C7440093E717002382F40088
:102EC0002DBF2286CE85268597000000E78080CA28
:102ED00061DD8547E312F5F27D5405B7FD179CC807
:102EE000D1BF797152CC032A050122D406D626D24D
:102EF0004AD04ECE56CA5AC85EC6130A0A02B7074F
:102F0000200000416364FA00232C0500184D91470E
:102F100005C7137BFA1FAE8AAA84631D0B0C4C49AC
:102F2000050718CD95E50357840093575A0063E3CE
:102F3000E70C23AC04009147B2502254925402593A
:102F4000F249624AD24A424BB24B3E854561828089
:102F50008359A40093579A00FD19B3F9F900639BB4
:102F60000908228597000000E78000D6854B2A8952
:102F700063E4AB008947C9B7FD576314F500854783
:102F800065BF5C48636FF504E3850AFACC48268583
:102F900097000000E780A0E22A899D4751DDE30BFE
:102FA00075FDFD57E30DF5FC83473400A1EFCA859D
:102FB000228597F0FFFFE7800065930A0403AA8B40
:102FC00048D413070423D6878507A38F07FEE39D04
:102FD000E7FE8357A40063EEF9028357A400E39051
:102FE000F9FA23AA2401CA85228597F0FFFFE7801A
:102FF000806188CC130404035A9423A84401C0CCF4
:1030000081471DBF228597F0FFFFE780406E25F9BD
:1030100079BF03451400854633863B01D68597F07A
:10302000FFFFE780E02055F9850965B701114AC81F
:103030000329850022CC26CA06CE4EC652C42328B8
:103040000500AA840041631109040347040089476D
:1030500063F4E7005C5085EB8357840091EB0945EE
:10306000F2406244D2444249B249224A0561828018
:103070005C509CCC9C4C23AA2401F5D3130404037C
:10308000C0CC0145F1BF3E898357A400FD59054AD4
:1030900085E38840CA8597000000E780E0C22A895E
:1030A00063003503E37DAAFA5C48E364F5FE45BF9F
:1030B000CA85228597F0FFFFE780E05488CC5DBF8A
:1030C000054579BF79712AC6680806D62EC432C272
:1030D0002ECE97F0FFFFE780C05463410504B70789
:1030E0000020138747540A052A97184393874754AB
:1030F000124619C323000700324719C323000700F3
:10310000AA9798C3014501CA01466C00280097F0B0
:10311000FFFFE7800072B250456182802D45E5BF18
:103120001971D2D486DEA2DCA6DACAD8CED6D6D21F
:10313000DAD0DECEE2CCE6CAEAC8EEC62EC6254A12
:10314000630A054A9379F6033289AA844E860C08ED
:10315000680097F0FFFFE780C06D2A8A2A84631B0E
:103160000530C24A324D9306F00256CA1307C00515
:1031700083470D00638DD70E638BE70E02CE0347A6
:103180000D00FD4763F7E70E130CF101130B00026E
:10319000930BF002B70C00085C08238067038507D7
:1031A000E31DFCFE01470146A1451305C0051308B8
:1031B000E002AD481303D007654E930EF003130FE2
:1031C000E007B307CD0083C70700930616006370BE
:1031D000FB02638477016397A71A9305C005330642
:1031E000DD0003460600630D7619630BB618369DA5
:1031F000630E0718834641031307500E6395E600DC
:103200001547230AE10211476373FB000147480891
:10321000A30FE102D24D97000000E78060E12A840D
:103220006316051EB2556E8597F0FFFFE78060526A
:103230002A84631D051C4255834705006387071CCC
:103240008347B50013F7F703230DE100A18B89EB4A
:103250002D464C1897F0FFFFE78040396308051AA8
:103260008145480897000000E780E0C74DBF050D85
:1032700001B7930700F84808A30FF1029700000078
:10328000E78000DB2A846302051C9377C90163850C
:1032900007286305041E9147631EF41C4808524921
:1032A00097000000E780C0D82A846311051C930AA8
:1032B000500EB2554A8597F0FFFFE78080492A8477
:1032C0006316051AC25783C7070063965719B2558C
:1032D0004A8597F0FFFFE780C0472A84631C0518E2
:1032E000C257138707028507A38F07FEE31DF7FE6A
:1032F00042552D464C1897F0FFFFE780403B85472D
:10330000A301F90093E98900C247425403C50700AD
:10331000A28597F0FFFFE780203B2A8997F0FFFF07
:10332000E7808025AA851305E40097F0FFFFE7807A
:10333000202AC257130700028D46A385E700C25713
:103340004247238D0700A38D07000346070063163D
:10335000D600238A0700A38A0700C257238E0700DE
:10336000A38E0700238F0700A38F07008547A301C3
:10337000F7006300091CD24A63EF27110944DDA856
:103380008506B1BD638C072B6364B7001944F5BD96
:10339000938FF70793FFFF0F6367F305EA9683CFD9
:1033A00006000906E3F4FEFF93F6FF07E360DFFE85
:1033B0009386F5FFE37CD7FC800093061700B302E9
:1033C000E400238AF2FEB687A2970907238AF7FF53
:1033D000B2863686FDB30506834F060063880F006C
:1033E000E39BF7FF65B71386CC2DFDB71386F7F97E
:1033F0001376F60F6365CE00811793F7F70F9000F1
:103400003A96230AF6FE0507E9B711448347F1030C
:1034100009C81147E31BE4E6918BE39807E61544DE
:10342000ADB5918B9DE38347A101C18BEDDB925735
:1034300003C50A0093850A0393F7F71FBE9597F01B
:10344000FFFFE78060282ACE81BB8307F103014498
:10345000E3DD07E225BFE38C07E6854548089700D2
:103460000000E78040A82A84E30505E49147631340
:10347000F4001D4423A00400228AADAA8347A101C1
:10348000C58BE5FB937749006396071A137989008A
:103490006301090A95BD83A74A01E371F9EE832B05
:1034A000C7024A84054CFD5C5245A2859700000086
:1034B000E78080812A8B21C5E30285ED63149501A5
:1034C00005444DBFA2850146568597F0FFFFE78072
:1034D000606A2A8445F103A74A0183A70A0193067B
:1034E000E7FF63FBD700850723A8FA0083C74A00DC
:1034F00093E717002382FA005A84E367EBFA424508
:10350000DE857D1997F0FFFFE780A024C2472A845B
:1035100023A6270119CDB9BF31FC8347A10113F7B9
:103520000701631B07101379290063040900858BC9
:10353000A9F393F7890099C393E9090442444259D6
:10354000938A84025C5423A22403CA859CD0034539
:10355000040097F0FFFFE780201788C41305C90116
:1035600097F0FFFFE780E00483576400C8C480C081
:103570002392F40023883401A388040023AE0400BE
:1035800023AA040013878422D6878507A38F07FE0A
:10359000E39DE7FE93F90902638E090403A9C400C1
:1035A000630A09040354A4008C4423AA24012604BA
:1035B00085497D5B6360240701448CCCE31C04EAED
:1035C0009377F91F85CB4244228597F0FFFFE78070
:1035D0008003E30505DA135999003306A900D0CC1E
:1035E000034514008546D68597F0FFFFE78020BA93
:1035F000E31805ECF65066545285D6544659B65930
:10360000265A965A065BF64B664CD64C464DB64D3E
:103610000961828088403309894097F0FFFFE78085
:10362000A06AAA8563F6A900E31665F9054471B797
:10363000094461B721443DBD11442DBDE38815D532
:103640002147AD4579B31D71A2CCCAC8CEC6D2C43C
:10365000DAC086CEA6CAD6C25EDE62DC66DA6AD878
:103660006ED62E8A23A006006C082A843289368BF7
:1036700097F0FFFFE780C0FEAA8939E5834914016E
:103680006394090483470401898B6380071C5C48A9
:10369000338727016374F70013C9F7FF930B0020EA
:1036A000930A8402130CF01FFD5C39A20C4C228596
:1036B00097F0FFFFE780A0706316051283470401AF
:1036C00093E707042308F400F64066444E85D64489
:1036D0004649B649264A964A064BF25B625CD25C82
:1036E000425DB25D25618280631795018547A3081D
:1036F000F4008549D1BF1C4408CC91E308C483077A
:10370000040163D30702F247504C854603C51700F6
:10371000D68597F0FFFFE780A0B169F983470401E0
:1037200093F7F7072308F400F2470C4C3E853EC69A
:1037300097F0FFFFE78020ED4DC9338DAD00B24714
:10374000637A2C0B03D7A70093549900B3869D008E
:103750006374D700B304B74103C51700A6866A8611
:10376000D28597F0FFFFE780A0AC49F14C4C338D38
:10377000A54163729D02260D13060020B305AA0120
:10378000568597F0FFFFE78080F28347040193F7A7
:10379000F7072308F400A60483270B003309994098
:1037A000269AA6972320FB005C48BE945C4444C83C
:1037B00063F39700A6875CC4E30209F05C4813F743
:1037C000F71F29EF7247835DA70013D79700FD1DF0
:1037D000B3FDED00E3950DF2E39A07EC0844814553
:1037E000E30705EC8547E311F5F08947A308F400EA
:1037F0008949D9BD584C6301A70354445848637D97
:10380000D70003C5170085466A86D68597F0FFFF67
:10381000E780E097E31C05EC232EA4014848CA8406
:103820001375F51FB387AB4063F32701BE8426866B
:10383000D285569597F0FFFFE78060E78347040144
:1038400093E707F82308F40081BF9D49B5BD011136
:103850006C0026CA06CE22CC4AC8AA8497F0FFFF85
:10386000E78000E0AA876315051803C70401937673
:103870000704638F06166207618763560702B24723
:10388000D04C854603C517009385840297F0FFFF4F
:10389000E780009A8547631D051483C7040193F7E9
:1038A000F7072388F40097F0FFFFE780E0CC2A8930
:1038B0008C50324597F0FFFFE780A0E9AA87631993
:1038C0000512C0508347B40093E70702A305F40034
:1038D0009C4494401397070141832183A30DE40086
:1038E000230DF40083C606000D476398E600C183EC
:1038F000230AF400A183A30AF400CC441305C401F5
:1039000097F0FFFFE780C0CCCA851305640197F0EC
:10391000FFFFE780E0CB23090400A3090400324441
:103920000549A3012401228597F0FFFFE78020DCF1
:10393000AA874DE9034704008D47631BF7088347B7
:103940004400639727091309040313070423CA8754
:103950008507A38F07FEE39DE7FE93075005230726
:10396000F4229307A0FAA307F4220C48930720053A
:1039700013071004930620072308F402A308F40297
:10398000930710062309F402A309E402230AD420B2
:10399000A30AD420230BE420A30BF42013058421D5
:1039A00097F0FFFFE780C0C24C441305C42197F095
:1039B000FFFFE780E0C1504C034514008546050633
:1039C00050D4CA8597F0FFFFE78080862302040069
:1039D000034514000146814597F0FFFFE780C0953D
:1039E000B337A00003C704011377F7FB2388E40073
:1039F000F2406244D24442493E8505618280011111
:103A000022CC06CE2A8497000000E78080E411E9EA
:103A10006C00228597F0FFFFE78080C419E1232026
:103A20000400F240624405618280B717002093874A
:103A30000781328703A307002A86C847AE8693050D
:103A400090060283B717002093870781328703A36C
:103A500047002A86C847AE86930590060283011167
:103A600022CC371400209307048106CE88C3CCC330
:103A700090C71305500730008545D4C79700000054
:103A8000E780E0FA03478100C5477D55631FF70CC7
:103A9000930700F81305B006700085452306F10072
:103AA0001304048197000000E78000FA1C4413050A
:103AB000400682978307810063CD070A1C441305E3
:103AC000400609448297A547700085451305B00656
:103AD0002306F10097000000E78000F7700085459D
:103AE00065452306010097000000E780E0F57000BF
:103AF000854569452306810097000000E780C0F4F2
:103B0000E147700085456D452306F10097000000F0
:103B1000E78080F3C1477000854571452306F100B9
:103B200097000000E78040F2700085457545230648
:103B3000810097000000E78020F1930720037000C8
:103B40008545130570032306F10097000000E78008
:103B5000A0EF854713058003700085452306F1001B
:103B600097000000E78040EE0545F24062440561A1
:103B70008280300085451305B00697000000E7807D
:103B800000EB0DBF011122CC30002A8499451305AA
:103B9000B00306CE97000000E78060E9831781003C
:103BA000A303F100A1832303F100031561009740F3
:103BB0000000E780C0A08317A10008C0A303F100A4
:103BC000A1832303F1000315610097400000E78003
:103BD000009F8317C10048C0A303F100A183230302
:103BE000F1000315610097400000E780409D08C484
:103BF000F240624405450561828079714AD04ECE1B
:103C00005AC806D622D426D252CC56CA5EC662C440
:103C100066C22A8B97E0FFFFE780C0C1AA892E8980
:103C200097E0FFFFE78000C1AA842E846394A90077
:103C3000E308B9FEB707000803A9872C83A9C72C9E
:103C4000B70B002097E0FFFFE780C0BEAA87058D75
:103C5000B3B7A700818D9D8D97300000E780C079B4
:103C60002A8A03A50B50AE8A97300000E780607364
:103C70004A86CE8697300000E78000C22A8C5A859B
:103C8000AE8C97300000E780C06A2A86AE866285D7
:103C9000E68597300000E780C01E2A86AE865285F2
:103CA000D68597300000E7808013E34D05F8B250C9
:103CB000225492540259F249624AD24A424BB24BC0
:103CC000224C924C45618280011122CC004126CACF
:103CD0004AC822854EC652C406CEAE84328A368980
:103CE000BA8997D0FFFFE7800070930500502285C6
:103CF00097D0FFFFE78020716DD986047956A6859D
:103D0000228597D0FFFFE780406C930510502285F5
:103D100097D0FFFFE780206F6DD993051050228563
:103D200097D0FFFFE780606F93057050228597D092
:103D3000FFFFE780406D6DD9D285228597D0FFFFC8
:103D4000E780A06B93057050228597D0FFFFE78036
:103D5000806B6DD9228597D0FFFFE780C0689305FF
:103D60000050228597D0FFFFE780E0696DD90546B6
:103D7000A685228597D0FFFFE78020659305105028
:103D8000228597D0FFFFE78000686DD9930510501A
:103D9000228597D0FFFFE78040688545228597D030
:103DA000FFFFE78000618144130AF9FF63C3240326
:103DB000228597D0FFFFE780A0631C4093F7072080
:103DC000EDFFF2406244D2444249B249224A0561C1
:103DD000828063189A008145228597D0FFFFE78093
:103DE000405D93056050228597D0FFFFE780A0617A
:103DF0006DD9228597D0FFFFE7806060B387990077
:103E00002380A70085045DB7011122CC004126CA9A
:103E10004AC84EC652C406CE2E8AB2843689BA89A2
:103E200093051060228597D0FFFFE780C05D6DF994
:103E3000228597D0FFFFE780005B93050050228525
:103E400097D0FFFFE780205C6DD9795693151A0053
:103E5000228597D0FFFFE7804057930510502285B9
:103E600097D0FFFFE780205A6DD993051050228527
:103E700097D0FFFFE780605A93057050228597D056
:103E8000FFFFE78040586DD9A685228597D0FFFFB8
:103E9000E780A05693057050228597D0FFFFE780FA
:103EA00080566DD9814463C32403228597D0FFFFD8
:103EB000E78000541C4093F70720EDFFF240624476
:103EC000D2444249B249224A05618280B3879900AF
:103ED00083C50700228597D0FFFFE7800052930536
:103EE0007050228597D0FFFFE780E0516DD985049F
:103EF0005DBFB725060041111166938505A822C450
:103F000006C62A8497D0FFFFE780803622852244A8
:103F1000B240410117D3FFFF6700434C411122C457
:103F20003714002006C62320A48297000000E780F3
:103F300080FC930604822244B24037460008B7450D
:103F40000008374500081306A6BF938585E01305D2
:103F500085CC4101170300006700A3B0B7570020CC
:103F6000938747821307000298C323A2070023A464
:103F7000070023A6070023A807008280B7170020A8
:103F800013874782916636978328070058439385A5
:103F90004782B757002093874782130EF01F631C98
:103FA000170301458280D847944B050513189700E5
:103FB0002E98B30ED800850623806E0094CB639CA8
:103FC000C6010507336717030506A30F081E23A8BC
:103FD0000700D0C3D8C70343050063050300D043DF
:103FE000E393C8FC05458280B7570020938747823A
:103FF000C8438280AA8703C7070009EB03C70500EF
:1040000001EB238007003385A74082808507E5B751
:104010002380E70085058507D5B7B71700201387EC
:10402000478291660111369726CA444306CE22CCB8
:104030004AC84EC652C456C299CC63CCB404375455
:10404000002093894782130444822E89AA8A014A58
:104050008144634C2A01F240624426854249D2449D
:10406000B249224A924A056182800C445685050A6B
:10407000A605CE9597000000E78000F81C44184084
:10408000AA948507B3E7E7021CC45C40FD175CC037
:10409000C9B7FD54C9B7011126CA4AC84EC62A89F4
:1040A00006CE22CCAE89AE840145634290048144A1
:1040B000B71500209385458211642E945C408DE3F2
:1040C00063D0340318441C484A852607BA95AE9736
:1040D0002380070097000000E78000F223280400F7
:1040E000F2406244D2444249B24905618280A685C9
:1040F0004A8597000000E78080F2E34BA0FAFD14A8
:104100006DB7B71700201387478291663697232231
:10411000070023240700232607002328070093878E
:104120004782130600208146B385D700238005000F
:104130008506E39BC6FE93870720E316F7FE828081
:1041400079714AD04ECE5AC806D622D426D252CC45
:1041500056CA5EC662C466C22A8B97D0FFFFE7804C
:10416000606DAA892E8997D0FFFFE780A06CAA8492
:104170002E846394A900E308B9FEB707000803A9D9
:10418000872C83A9C72CB70B002097D0FFFFE780AF
:10419000606AAA87058DB3B7A700818D9D8D973082
:1041A0000000E78060252A8A03A50B50AE8A97306D
:1041B0000000E780001F4A86CE8697200000E78037
:1041C000A06D2A8C5A85AE8C97300000E780601D68
:1041D0002A86AE866285E68597300000E78060CA51
:1041E0002A86AE865285D68597300000E78020BFAC
:1041F000E34D05F8B250225492540259F249624AF2
:10420000D24A424BB24B224C924C456182800545CA
:10421000828003254541834705002310F6008280F4
:1042200003258541834725002310F60082808327DC
:1042300005428A05AE978843834705002310F600A0
:104240008280411122C426C206C683C705002A8483
:10425000AE848D8B8DCF05476385E70C0327C40D96
:10426000054561C783C7740083C66400A207D58F64
:10427000CDCF6371F70C8357C40C01456367F70A10
:104280003375F70255E98547A306F44279A883C739
:10429000250083C535000947A205DD8D93D785002C
:1042A00093F5F50F638CE704636BF7020547E3971B
:1042B000E7FA1306C50D97000000E780C0F5232834
:1042C000A40C83C7740003C76400A207D98F130727
:1042D0000004E395E7F8A147232EF40C41B70D47FE
:1042E0006387E7023D47E39BE7F68327C54103C7A2
:1042F00027002328F50C231EE50C8DB71306C50DEA
:1043000097000000E78000F22328A40C81BF9547A6
:10431000E3E6B7F41306C50D97000000E78060F1EF
:10432000E5B783270543DC478297B2402244924495
:1043300041018280232EF40C0145C5BF41114AC0C2
:1043400006C622C426C283C72500370900201309E8
:10435000A9542300F900854663EDF6000347650C78
:1043600089442A841377F70F630797000D46630982
:10437000C702854439A8814489CF832705438545F1
:10438000DC438297834709002302F40C8D47230303
:10439000F40CB240224426850249924441018280B5
:1043A00091EF8327054381459C4782978347090006
:1043B0002303940C81442302F40CE1BF8347450C92
:1043C0008144E388D7FC8327054385459C47829732
:1043D000834509008327044322852302B40CDC4370
:1043E000829745BF83C6550003C7450003C6050035
:1043F000A206D98E0D8A8545AA8713F7F60F6303A7
:10440000B60411C689456302B60605458280034796
:10441000650C89466388E6000347650C8D460545B3
:104420006394E60483C6274103C7074189C6B336B0
:10443000E00093E62600370700201307C754230047
:10444000D70029A88346650C0D460545631ED60096
:10445000636CE500370700201307C75423A8E70C57
:10446000094723AEE70C014582800346650C8D4564
:104470000545E39BC5FEE206E18663DB0600F146E7
:104480001377F7073307D7023E978346A70C65B724
:10449000F1463307D7023E978346E72669BF0347B5
:1044A000650C8946AA871377F70F6307D7008D46F7
:1044B0006301D702054582800347450C054565FF2A
:1044C0001387470C23A8E70C054723AEE70C0145EB
:1044D00082800347450C79DFE5B78347650C0D47BC
:1044E0006311F70203C74500854763EAE700032726
:1044F0000543232EF50C814705072328E50C3E854F
:1045000082808547EDBF8347650C0D476310F70236
:1045100003C74500854763E9E7008327054303C7D1
:104520002500A380E70081473E8582808547EDBF57
:1045300003C7550083C645002207558F01CB0545AB
:1045400082800545B24022444101828003C7750044
:1045500083C665002207558F7DF3411122C406C62C
:1045600083C525000347650C8D4693F5F507A30227
:10457000B50C2A84E387E6FC97100000E7802057FB
:104580008347540C91C789472303F40C01455DBF51
:104590008547DDBF411106C622C483C705002A87AF
:1045A0008D8B8DCF894605446391D7068347650C73
:1045B0000D470544631BF70483C7350003C7250077
:1045C0000144A207D98FB1E383C5450093F7F507EE
:1045D0008DCF97100000E780A04905A88347650CA0
:1045E00089466388F6008347650C8D460544639EC3
:1045F000F60083C7350083C625000144A207D58F86
:1046000085466394D7002309F7402285B2402244AF
:1046100041018280411126C206C622C44AC003C796
:104620000500AA840D8B29C7894605496319D70659
:104630000347650C8D4605496393E60603C73500BD
:1046400083C6250001492207558F31EB03C745007A
:104650009376F707A9C62E84BA8597100000E780E5
:10466000204583A70443A2852685DC47829705A8B9
:104670000347650C89466388E6000347650C8D4651
:104680000549639EE60003C7350083C6250005493A
:104690002207558F63152701238904400149B24041
:1046A00022444A8592440249410182800145828028
:1046B0000145828083C7150013972700B7070008BC
:1046C0009387C72EBA9703A3070002838346650C1E
:1046D0000D4685476310D60283C64500854763EBC8
:1046E000D70083270543411106C6DC478297B240B5
:1046F000410182803E85828001458280411193057F
:10470000000806C622C42A8497100000E7804036BD
:104710002285814597100000E7808035228522445C
:10472000B2404101172300006700A390011122CC81
:104730004EC652C406CE26CA4AC8AA8997D0FFFFE1
:10474000E780400F2A8A2E8497D0FFFFE780800EF3
:10475000AA842E896314AA00E308B4FE0564370A0C
:104760000020130404FA97D0FFFFE780A00C8327F2
:104770000A50330795403335E500B3D78702B38538
:104780002541B38737036394A500E36EF7FCF2403D
:104790006244D2444249B249224A056182800111F1
:1047A00022CC4EC652C406CE26CA4AC8AA8997D081
:1047B000FFFFE78020082A8A2E8497D0FFFFE7803A
:1047C0006007AA842E896314AA00E308B4FE371494
:1047D0003D00370A00201304049097D0FFFFE780C4
:1047E000600583270A50330795403335E500B3D77A
:1047F0008702B3852541B38737036394A500E36E31
:10480000F7FCF2406244D2444249B249224A05616F
:10481000828037050020130505001703000067009C
:104820008370411122C43704002006C69307040098
:1048300083C777008DCB97100000E78080DEB70735
:10484000002003A5075597C0FFFFE780A03413059C
:10485000C05097C0FFFFE780202F1305040097107A
:104860000000E780607F2244B24037050400410128
:1048700017C3FFFF670083268356C50D0326050D6A
:104880004111814522C406C62A8497100000E780A2
:10489000201A0357C40C8326C40D89476373D700BD
:1048A00085472306F442B2402244014541018280FB
:1048B00083560528032645274111814522C406C693
:1048C0002A8497100000E780A0120357042783264C
:1048D000042891476373D7008D472306F442B24002
:1048E0002244014541018280411106C622C49547F8
:1048F0002306F5428146014681452A84971000002F
:10490000E7800013228597100000E7808072B24094
:104910002244014541018280411106C622C49947C3
:104920002306F5428146014681452A8497100000FE
:10493000E780000C228597100000E780806FB2406E
:104940002244014541018280832745420327854255
:10495000011122CC3EC43AC606CE93F707061307D0
:1049600000022A84638AE70213070004638CE702CB
:10497000B9EF2C0097000000E78000D429E98357A5
:10498000E1009DE7228597000000E78020F6F240D5
:1049900062440145056182802C0097000000E78099
:1049A00020D3E9BF2C0097000000E78020D5F9B79D
:1049B00083078100228563D7070097000000E78006
:1049C000E0EBF1B797000000E780C0EEC9B72C001C
:1049D000228597000000E780A0D255BF797106D6E6
:1049E00022D40018232EA4FCAE87A30DF4FC834729
:1049F000B4FDC1EB8327C4FD9387C7262326F4FEAD
:104A00008327C4FD83C7C7420D476386E70011476C
:104A10006386E7024DA08327C4FEDC4B0327C4FE58
:104A2000035747003387E7408327C4FED8CB0325CD
:104A3000C4FD97000000E780E0E7B5A88327C4FD28
:104A400083C7670C13F7F70F8D476311F7028327AE
:104A5000C4FD83A70743DC4B91CB8327C4FD83A709
:104A60000743DC4B81450325C4FD82978327C4FEA1
:104A700023AA07000325C4FD97000000E78000E794
:104A80001DA88327C4FD83A70743DC4B8DC783275D
:104A9000C4FD83C7670C13F7F70F8D47631DF7003D
:104AA0008327C4FD83A70743D84B8347B4FDBE8546
:104AB0000325C4FD029781473E85B25022544561CB
:104AC0008280797106D622D40018232EA4FCAE87EA
:104AD000A30DF4FC8347B4FDDDEB8327C4FD93876E
:104AE000870C2326F4FE8327C4FD83C7C7420547EE
:104AF0006386E70009476386E702E1A08327C4FED7
:104B0000DC4B0327C4FE035747003387E740832766
:104B1000C4FED8CB0325C4FD97000000E78000D673
:104B20004DA08327C4FD83C7D74299CF8146014654
:104B300081450325C4FD97100000E78060EF8327BF
:104B4000C4FDA3860742B5A88327C4FD83C7670CAD
:104B500013F7F70F8D476311F7028327C4FD83A76F
:104B600007439C4B91CB8327C4FD83A707439C4BF2
:104B700081450325C4FD82978327C4FE23AA07002D
:104B80000325C4FD97000000E78040D91DA88327B6
:104B9000C4FD83C7670C13F7F70F8D476313F70244
:104BA0008327C4FD83A707439C4B81CF8327C4FD84
:104BB00083A70743984B8347B4FDBE850325C4FDF7
:104BC000029781473E85B25022544561828041114F
:104BD00006C622C426C2894723020500A300F500A9
:104BE0002300C50011CA0547630BE6080545B2401E
:104BF000224492444101828031472301E500194754
:104C0000A301E500A302F500B7040440AE87054701
:104C10002303E500A303E5002A841306C00B8145A6
:104C20003E8597300000E780E00405679306078023
:104C3000A69654C19386044014C59386044434DD7B
:104C4000930607E0A696232CD50A04C183453400B9
:104C500013070790AA8726979306C5000146636B42
:104C6000B602034624000567938604509387C70362
:104C7000BA94856501476368C70201458DBF214726
:104C80002301E5001147A301E500A302F500B704E5
:104C90000050ADBF1305072098C288CE0506130744
:104CA000070291066DBF94C3A4C30507938606024D
:104CB0009107AE94C9B71C4201112EC6985F984760
:104CC0008346D10022CC799B06CE26CA98C72AC437
:104CD000054732846395E6063707100098DFD8470A
:104CE000B706E0FF9386F6FB758FD8C7D847B7069F
:104CF000F0FFFD16758FD8C7984B1367170098CB38
:104D0000984B058B75FF0D4597000000E780A020AC
:104D10000347C1008547631EF7001C40984713678F
:104D2000070298C79847059B98C798471367A7003D
:104D300098C7F2406244D244014505618280D84759
:104D400093D4050193F4F40F13670704D8C7984B65
:104D50001367170098CB984B058B75FF0D4597008F
:104D60000000E780401BB7072D0099C0B7073D0042
:104D7000184051451CDF97000000E780401A49BFEA
:104D800071060A062A968D06898250468A06AE96D4
:104D90006394B6000145828003C7150083C70500F0
:104DA000910522075D8F83C7E5FFC2075D8F83C72B
:104DB000F5FFE207D98F1CC2E1BF0D060982785DBD
:104DC0000A062E966394C5002E8582801C439105A9
:104DD00093D68700238EF5FEA38ED5FE93D60701CA
:104DE000E183238FD5FEA38FF5FEE9BF1841411162
:104DF0009A0506C693E505020CCB1C4B93F70702F8
:104E0000EDFF0D4597000000E780E010B24001453E
:104E1000410182801841411106C6C1471CCB1C4B81
:104E2000C18BF5FF0D4597000000E780C00EB24032
:104E30000145410182804111014506C697C0FFFF2F
:104E4000E78080D63777DC02B7070020130707C05A
:104E5000938707556317E5023707400098C38D46CF
:104E600037570020232CD782884397C0FFFFE78065
:104E700060D2B2401305C050410117C3FFFF670065
:104E8000A3CC37A74A04130707206318E50023A023
:104E90000700375700209546F1B737E7B8051307E5
:104EA0000780E313E5FC3707C00098C39D463757DA
:104EB00000204DBF4111014685451305600506C61A
:104EC00097C0FFFFE78040611305C07197C0FFFFE7
:104ED000E78080C73705040097C0FFFFE78000C068
:104EE000014681453705040097C0FFFFE78000B405
:104EF0003705040097C0FFFFE78040BDB240014680
:104F00008D451305D003410117C3FFFF6700C35C44
:104F10008280170300006700C38817030000670042
:104F200023811C45D84B058B631C0712411126C2F7
:104F3000C44B9C4F06C622C44AC0FD8C638C04102F
:104F40009397C4002A8463D6070097000000E78087
:104F500080119397D40063D7070022859700000043
:104F6000E780402085679387078033F7F40019C3F3
:104F700018445CCB63DC04008347740C3707008063
:104F800093F7F70F2303F40C1C44D8CB93F72400BA
:104F900081C71C440947D8CB93F78400B1C7832746
:104FA00004439C4F99C32285829737090020130937
:104FB00049558347090093F7F70F85C783470900D1
:104FC0000947850793F7F70F2300F9008347090086
:104FD0006379F700228597000000E780209723007F
:104FE00009001C442147D8CB93F7040191C72285BF
:104FF00097000000E780C0229397340163D7070031
:10500000228597000000E780002E9397240163D744
:105010000700228597000000E780003A9397B400CC
:1050200063DC070083270443DC4F99C32285829702
:105030001C4437071000D8CB9397A40063DC07000B
:10504000832704439C5399C3228582971C443707C6
:105050002000D8CBB24022449244024941018280D0
:105060008280397122DC26DA4AD84ED652D456D202
:105070005AD05ECE62CC06DE66CA2A84370A0800A1
:1050800097100000E780E0F52A898144B70A0020E4
:10509000214B8549994B614C7D1A63100902F250EE
:1050A0006254D2544259B259225A925A025BF24B7C
:1050B000624CD24C05452161828093771900C9CF9B
:1050C00093FCF40FE685228597100000E78060F2DC
:1050D0002AC4A247858BA1CF93972400A297D857C3
:1050E0002324370183464400639F3601184B3AC698
:1050F00033878403B246B3F64601BA9703D707272E
:10510000158F23AEE726E685228597000000E7800D
:10511000208D83474400639C370191E88347C44254
:1051200063977701228597100000E78080F0A247FF
:10513000A18B9DC395E0938C4A5583C70C0093F7D0
:10514000F70F99CB228597000000E78020805C5400
:1051500023800C0023A4670113591900850435BF6F
:10516000797122D426D24AD04ECE52CC56CA06D617
:105170005AC82A8497100000E780C0E82A89814431
:10518000130A00088549954A631D0900B25022544C
:1051900092540259F249624AD24A424B054545614E
:1051A000828093771900BDC713FBF40FDA8522853F
:1051B00097100000E780E0E52AC6B247858B9DCBBB
:1051C00093972400A297DC4BDA85228523A437012C
:1051D00097000000E780208F83474400639C3701DD
:1051E00091E88347C44263975701228597100000D6
:1051F000E78020E4B24793F7070889CFA685228588
:1052000097000000E780C02193972400A297DC4B11
:1052100023A44701135919008504BDB71C4501118A
:1052200002C6984F22CC26CA4AC83D9B06CE98CFCC
:105230009C5389462A893EC63244B2443247B2471B
:1052400091803D88C583BD8B93F4F47F6382D70240
:1052500099466387D70403278900F24062441C4FB4
:10526000D244424993E707011CCF0545056182807E
:10527000FDD0F1473304F40226862A94832544277F
:10528000210597000000E78080B383274427A69775
:10529000232AF4268327C427BE94232E942665BF91
:1052A000F1473304F4023D830D8B2A948347C426CF
:1052B000BD8BD98FCDF3A147E39FF4F89305454209
:1052C0002146210597000000E78060AF8327C427AF
:1052D0000547A107232EF426B7070020238AE754A9
:1052E0009DBF5845411122C45C4306C626C2F99BA6
:1052F0004AC02A845CC38145210597000000E780ED
:1053000020AF034634009307440101479306F00F92
:10531000636BC7085C447D57854498CF4167050798
:10532000D8CF2547D8CB84CB9843228513090004D6
:105330001377F78098C3A302040C97100000E7804E
:1053400040CF1C4405677146D8CB9307C4263E85E1
:10535000814597300000E780E091AA852318242733
:10536000228597100000E780209A9307840C7146ED
:1053700081453E8597300000E780C08F130700F815
:105380002316240D2304E40CAA852285971000001F
:10539000E7808097B2402303940C22449244024950
:1053A0000545410182808C430507910794C5CC4B8C
:1053B00094C5B9BF5C4571761306F63F9847D44350
:1053C000058393F6F6EFD4C3D44393E60610D4C313
:1053D0001C45D447F18ED4C7937637003797000821
:1053E000130707D93697034707008D46631ED7007A
:1053F000A300E500D847896693860640558FD8C735
:105400000967D8CB054582800947A300E500D84746
:10541000856693860640558FD8C7DDB7F147B387B9
:10542000F50279714ECE06D622D426D24AD052CC7D
:1054300056CA5AC8AA9703A7470D83A6870D83D7D4
:10544000C70C5EC662C4158FAA896373F700BA875A
:10545000714433848502854A8D07B39ABA00139B41
:105460002500C16B13DA270093CAFAFF4E9BFD1B80
:105470004E9413F9F50F138C890083274B01984F35
:10548000337777016378EA000327840D8327440D7F
:10549000636FF700B250225492540259F249624AA3
:1054A000D24A424BB24B224C05454561828083541F
:1054B000C40C998F63F39700BE848325040D9396E3
:1054C000040193873400C1824A86628513DA27007B
:1054D00097000000E780008B8327840D0327040DCD
:1054E0002697BE948327440D2328E40C232C940C88
:1054F000E395F4F883A7C900D85B33775701D8DB6D
:10550000ADBF411106C697000000E78080117350BF
:10551000003297C0FFFFE78040FB094597C0FFFFBF
:10552000E78000FB97000000E780209197000000D3
:10553000E780409E97000000E7800098B240370661
:105540000020370500201306864785451305050012
:105550004101170300006700235EB707002093870F
:10556000070003C5670C75151335150082800111FE
:105570004AC84EC606CE22CC26CA52C456C2AE89EE
:10558000328997C0FFFFE780E02A9307002063F489
:10559000270113090020E1649384046AAA94370A5E
:1055A000002033B5A400D28A3304B50083471A52D1
:1055B00099EB97C0FFFFE780E027E3E985FE6314DE
:1055C000B400E36595FE37060020A3800A5201442B
:1055D00093074657631B24039316040137050020E5
:1055E000C18213064657930510081305050097005E
:1055F0000000E780E0432285F2406244D244424901
:10560000B249224A924A05618280338789008346E3
:1056100007003387870005042300D70065BFB7174D
:1056200002409843B706FFE0B1061367170098C31E
:10563000D843758FD8C39843B706F7FEFD16758F0C
:1056400098C39843B706FCFFFD16758F98C3D843DF
:10565000B70601DFFD16758FD8C323A6070298434E
:10566000B706F7EAFD16758F98C33707FF0098C78E
:1056700094434167D98E94C39307F7FF37170240CD
:1056800014431396E60063440600FD17F5FBB717B5
:10569000024098439316E70063C3060001A0D84375
:1056A000B706C4DFFD16D8C3D843D8C3D8431367A1
:1056B0000740D8C3D843758FD8C3D843B7061D2039
:1056C000558FD8C3D857BD76758FD8D7D857B7065A
:1056D000000113671700D8D79843558F98C3B717A1
:1056E0000240984393166700E3DD06FED843719BA2
:1056F000D8C3D84313672700D8C3371702405C4389
:10570000A18BF5DF17C3FFFF670003F2411122C42D
:1057100037040020130444439305C40306C626C27D
:10572000AA8497000000E780601F93055403268534
:1057300097000000E780801E93055402268597009D
:105740000000E780A01DB24022449244014541017F
:10575000828041119305100806C622C42A8497004E
:105760000000E78040258D45228597000000E780F6
:10577000802422859305200897000000E780A0235D
:10578000B2402244014541018280411106C691E99F
:1057900097000000E780A0128947B2403E85410192
:1057A00082808D468947E39AD5FEB70700200547DA
:1057B0002380E75297000000E780E033B70700201E
:1057C00023ACA754B707002003A7C755814771D75B
:1057D00002978147D9B70547639DE5020327050F67
:1057E0008357850EB377F70291EF09CF41118146B8
:1057F000014606C697000000E7808023B2400145BD
:1058000041018280B70700200547A380E752014588
:1058100082800945828083C71500130710026386C2
:10582000E70213072002638FE70613070002639C59
:10583000E70037070020232AF750B7570020938747
:10584000C787232AF52601458280370700201307E2
:1058500087511443B75700209387C78713D6860014
:105860002380D700A380C70013D60601E182A3815D
:10587000D700834647002381C7002328F50C2382E5
:10588000D7008346570003476700A382D7002383CE
:10589000E70083C7750003C76500A207D98F232ED1
:1058A000F50C55B783C7350003C72500A207D98F6C
:1058B000370700202320F75679B7B70500209385D6
:1058C00045519C411305F00F6386A704B75700208C
:1058D00003C6D78783C6C787370700202206558EA1
:1058E00083C6E7871307875188C1C206558E83C6D2
:1058F000F7879387C787E206D18E14C383C6470014
:105900002302D70083C6570083C76700A302D700CE
:105910002303F70001458280411106C603C75500E5
:1059200083C7450003C6250022075D8F93178601B4
:10593000E18763D20706F1479376F607B386F6024E
:105940009387860CAA9603C8860CAA97136808F852
:105950002384060D83C607003D8A1377F70FC19A8B
:10596000558E2380C7002392E70003C73500BE850C
:105970000D8B93162700370700081307873C3697CF
:105980001843A380E70097000000E780E037B240AB
:10599000014541018280F146B306D6029387C626AF
:1059A000AA9603C8C626AA971378F807238606275F
:1059B00055B741119397850106C6E18763D2070267
:1059C00093F5F507F147B385F5029385850CAA9504
:1059D00097000000E780203DB240014541018280F0
:1059E000F147B385F5029385C526D5B793F7F5073B
:1059F000F145B387B702411106C605479385C7260F
:105A0000AA9723AAC72623ACD72623AE0726834608
:105A10004500AA956394E60023A2C72897000000DA
:105A2000E780604BB24001454101828093F7F50762
:105A3000F145B387B702411106C605479385870C28
:105A4000AA9723A8C70C23AAD70C23AC070C83461C
:105A50004500AA956394E60023A0C70E97000000B6
:105A6000E780C038B24001454101828041119397DF
:105A7000850106C6E18763D5070293F5F507F1476F
:105A8000B385F5029385850CAA9585472381F5009A
:105A900097000000E780E04CB24001454101828060
:105AA000F147B385F5029385C526F9BF4111939758
:105AB000850106C6E18763D4070293F5F507F14730
:105AC000B385F5029385850CAA952381050097007F
:105AD0000000E780A04CB240014541018280F147BF
:105AE000B385F5029385C526C5B717030000670087
:105AF0006320F147B385F502AA9503D5C5278280B7
